{
  "contractName": "MarbleHero",
  "abi": [
    {
      "inputs": [],
      "stateMutability": "nonpayable",
      "type": "constructor"
    },
    {
      "anonymous": false,
      "inputs": [
        {
          "indexed": true,
          "internalType": "address",
          "name": "owner",
          "type": "address"
        },
        {
          "indexed": true,
          "internalType": "address",
          "name": "approved",
          "type": "address"
        },
        {
          "indexed": true,
          "internalType": "uint256",
          "name": "tokenId",
          "type": "uint256"
        }
      ],
      "name": "Approval",
      "type": "event"
    },
    {
      "anonymous": false,
      "inputs": [
        {
          "indexed": true,
          "internalType": "address",
          "name": "owner",
          "type": "address"
        },
        {
          "indexed": true,
          "internalType": "address",
          "name": "operator",
          "type": "address"
        },
        {
          "indexed": false,
          "internalType": "bool",
          "name": "approved",
          "type": "bool"
        }
      ],
      "name": "ApprovalForAll",
      "type": "event"
    },
    {
      "anonymous": false,
      "inputs": [
        {
          "indexed": true,
          "internalType": "address",
          "name": "_owner",
          "type": "address"
        },
        {
          "indexed": false,
          "internalType": "uint256",
          "name": "_count",
          "type": "uint256"
        }
      ],
      "name": "BatchMint",
      "type": "event"
    },
    {
      "anonymous": false,
      "inputs": [
        {
          "indexed": true,
          "internalType": "address",
          "name": "_owner",
          "type": "address"
        },
        {
          "indexed": false,
          "internalType": "uint256",
          "name": "_tokenId",
          "type": "uint256"
        }
      ],
      "name": "Burn",
      "type": "event"
    },
    {
      "anonymous": false,
      "inputs": [
        {
          "indexed": true,
          "internalType": "address",
          "name": "_owner",
          "type": "address"
        },
        {
          "indexed": false,
          "internalType": "uint256",
          "name": "_tokenId",
          "type": "uint256"
        }
      ],
      "name": "Mint",
      "type": "event"
    },
    {
      "anonymous": false,
      "inputs": [
        {
          "indexed": true,
          "internalType": "address",
          "name": "minter",
          "type": "address"
        }
      ],
      "name": "MinterAdded",
      "type": "event"
    },
    {
      "anonymous": false,
      "inputs": [
        {
          "indexed": true,
          "internalType": "address",
          "name": "minter",
          "type": "address"
        }
      ],
      "name": "MinterRemoved",
      "type": "event"
    },
    {
      "anonymous": false,
      "inputs": [
        {
          "indexed": true,
          "internalType": "address",
          "name": "previousOwner",
          "type": "address"
        },
        {
          "indexed": true,
          "internalType": "address",
          "name": "newOwner",
          "type": "address"
        }
      ],
      "name": "OwnershipTransferred",
      "type": "event"
    },
    {
      "anonymous": false,
      "inputs": [
        {
          "indexed": false,
          "internalType": "string",
          "name": "_baseUri",
          "type": "string"
        }
      ],
      "name": "SetBaseURI",
      "type": "event"
    },
    {
      "anonymous": false,
      "inputs": [
        {
          "indexed": true,
          "internalType": "address",
          "name": "from",
          "type": "address"
        },
        {
          "indexed": true,
          "internalType": "address",
          "name": "to",
          "type": "address"
        },
        {
          "indexed": true,
          "internalType": "uint256",
          "name": "tokenId",
          "type": "uint256"
        }
      ],
      "name": "Transfer",
      "type": "event"
    },
    {
      "inputs": [],
      "name": "_baseUri",
      "outputs": [
        {
          "internalType": "string",
          "name": "",
          "type": "string"
        }
      ],
      "stateMutability": "view",
      "type": "function"
    },
    {
      "inputs": [
        {
          "internalType": "address",
          "name": "to",
          "type": "address"
        },
        {
          "internalType": "uint256",
          "name": "tokenId",
          "type": "uint256"
        }
      ],
      "name": "approve",
      "outputs": [],
      "stateMutability": "nonpayable",
      "type": "function"
    },
    {
      "inputs": [
        {
          "internalType": "address",
          "name": "owner",
          "type": "address"
        }
      ],
      "name": "balanceOf",
      "outputs": [
        {
          "internalType": "uint256",
          "name": "",
          "type": "uint256"
        }
      ],
      "stateMutability": "view",
      "type": "function"
    },
    {
      "inputs": [
        {
          "internalType": "uint256",
          "name": "tokenId",
          "type": "uint256"
        }
      ],
      "name": "getApproved",
      "outputs": [
        {
          "internalType": "address",
          "name": "",
          "type": "address"
        }
      ],
      "stateMutability": "view",
      "type": "function"
    },
    {
      "inputs": [
        {
          "internalType": "address",
          "name": "owner",
          "type": "address"
        },
        {
          "internalType": "address",
          "name": "operator",
          "type": "address"
        }
      ],
      "name": "isApprovedForAll",
      "outputs": [
        {
          "internalType": "bool",
          "name": "",
          "type": "bool"
        }
      ],
      "stateMutability": "view",
      "type": "function"
    },
    {
      "inputs": [],
      "name": "name",
      "outputs": [
        {
          "internalType": "string",
          "name": "",
          "type": "string"
        }
      ],
      "stateMutability": "view",
      "type": "function"
    },
    {
      "inputs": [],
      "name": "owner",
      "outputs": [
        {
          "internalType": "address",
          "name": "",
          "type": "address"
        }
      ],
      "stateMutability": "view",
      "type": "function"
    },
    {
      "inputs": [
        {
          "internalType": "uint256",
          "name": "tokenId",
          "type": "uint256"
        }
      ],
      "name": "ownerOf",
      "outputs": [
        {
          "internalType": "address",
          "name": "",
          "type": "address"
        }
      ],
      "stateMutability": "view",
      "type": "function"
    },
    {
      "inputs": [],
      "name": "renounceOwnership",
      "outputs": [],
      "stateMutability": "nonpayable",
      "type": "function"
    },
    {
      "inputs": [
        {
          "internalType": "address",
          "name": "from",
          "type": "address"
        },
        {
          "internalType": "address",
          "name": "to",
          "type": "address"
        },
        {
          "internalType": "uint256",
          "name": "tokenId",
          "type": "uint256"
        }
      ],
      "name": "safeTransferFrom",
      "outputs": [],
      "stateMutability": "nonpayable",
      "type": "function"
    },
    {
      "inputs": [
        {
          "internalType": "address",
          "name": "from",
          "type": "address"
        },
        {
          "internalType": "address",
          "name": "to",
          "type": "address"
        },
        {
          "internalType": "uint256",
          "name": "tokenId",
          "type": "uint256"
        },
        {
          "internalType": "bytes",
          "name": "_data",
          "type": "bytes"
        }
      ],
      "name": "safeTransferFrom",
      "outputs": [],
      "stateMutability": "nonpayable",
      "type": "function"
    },
    {
      "inputs": [
        {
          "internalType": "address",
          "name": "operator",
          "type": "address"
        },
        {
          "internalType": "bool",
          "name": "approved",
          "type": "bool"
        }
      ],
      "name": "setApprovalForAll",
      "outputs": [],
      "stateMutability": "nonpayable",
      "type": "function"
    },
    {
      "inputs": [],
      "name": "symbol",
      "outputs": [
        {
          "internalType": "string",
          "name": "",
          "type": "string"
        }
      ],
      "stateMutability": "view",
      "type": "function"
    },
    {
      "inputs": [
        {
          "internalType": "uint256",
          "name": "index",
          "type": "uint256"
        }
      ],
      "name": "tokenByIndex",
      "outputs": [
        {
          "internalType": "uint256",
          "name": "",
          "type": "uint256"
        }
      ],
      "stateMutability": "view",
      "type": "function"
    },
    {
      "inputs": [
        {
          "internalType": "address",
          "name": "owner",
          "type": "address"
        },
        {
          "internalType": "uint256",
          "name": "index",
          "type": "uint256"
        }
      ],
      "name": "tokenOfOwnerByIndex",
      "outputs": [
        {
          "internalType": "uint256",
          "name": "",
          "type": "uint256"
        }
      ],
      "stateMutability": "view",
      "type": "function"
    },
    {
      "inputs": [],
      "name": "totalSupply",
      "outputs": [
        {
          "internalType": "uint256",
          "name": "",
          "type": "uint256"
        }
      ],
      "stateMutability": "view",
      "type": "function"
    },
    {
      "inputs": [
        {
          "internalType": "address",
          "name": "from",
          "type": "address"
        },
        {
          "internalType": "address",
          "name": "to",
          "type": "address"
        },
        {
          "internalType": "uint256",
          "name": "tokenId",
          "type": "uint256"
        }
      ],
      "name": "transferFrom",
      "outputs": [],
      "stateMutability": "nonpayable",
      "type": "function"
    },
    {
      "inputs": [
        {
          "internalType": "address",
          "name": "newOwner",
          "type": "address"
        }
      ],
      "name": "transferOwnership",
      "outputs": [],
      "stateMutability": "nonpayable",
      "type": "function"
    },
    {
      "inputs": [
        {
          "internalType": "string",
          "name": "newUri",
          "type": "string"
        }
      ],
      "name": "secureBaseUri",
      "outputs": [],
      "stateMutability": "nonpayable",
      "type": "function"
    },
    {
      "inputs": [
        {
          "internalType": "uint256",
          "name": "tokenId",
          "type": "uint256"
        }
      ],
      "name": "tokenURI",
      "outputs": [
        {
          "internalType": "string",
          "name": "",
          "type": "string"
        }
      ],
      "stateMutability": "view",
      "type": "function"
    },
    {
      "inputs": [
        {
          "internalType": "bytes4",
          "name": "interfaceId",
          "type": "bytes4"
        }
      ],
      "name": "supportsInterface",
      "outputs": [
        {
          "internalType": "bool",
          "name": "",
          "type": "bool"
        }
      ],
      "stateMutability": "view",
      "type": "function"
    },
    {
      "inputs": [
        {
          "internalType": "address",
          "name": "_owner",
          "type": "address"
        }
      ],
      "name": "tokensOfOwner",
      "outputs": [
        {
          "internalType": "uint256[]",
          "name": "",
          "type": "uint256[]"
        }
      ],
      "stateMutability": "view",
      "type": "function"
    },
    {
      "inputs": [
        {
          "internalType": "address",
          "name": "owner",
          "type": "address"
        }
      ],
      "name": "mint",
      "outputs": [
        {
          "internalType": "uint256",
          "name": "",
          "type": "uint256"
        }
      ],
      "stateMutability": "nonpayable",
      "type": "function"
    },
    {
      "inputs": [
        {
          "internalType": "address",
          "name": "owner",
          "type": "address"
        },
        {
          "internalType": "uint256",
          "name": "count",
          "type": "uint256"
        }
      ],
      "name": "batchMint",
      "outputs": [],
      "stateMutability": "nonpayable",
      "type": "function"
    },
    {
      "inputs": [
        {
          "internalType": "uint256",
          "name": "tokenId",
          "type": "uint256"
        }
      ],
      "name": "burn",
      "outputs": [],
      "stateMutability": "nonpayable",
      "type": "function"
    },
    {
      "inputs": [
        {
          "internalType": "address",
          "name": "minter",
          "type": "address"
        }
      ],
      "name": "addMinter",
      "outputs": [],
      "stateMutability": "nonpayable",
      "type": "function"
    },
    {
      "inputs": [
        {
          "internalType": "address",
          "name": "minter",
          "type": "address"
        }
      ],
      "name": "removeMinter",
      "outputs": [],
      "stateMutability": "nonpayable",
      "type": "function"
    },
    {
      "inputs": [
        {
          "internalType": "address",
          "name": "minter",
          "type": "address"
        }
      ],
      "name": "isMinter",
      "outputs": [
        {
          "internalType": "bool",
          "name": "",
          "type": "bool"
        }
      ],
      "stateMutability": "view",
      "type": "function"
    }
  ],
  "bytecode": "0x60806040526040518060400160405280601881526020017f68747470733a2f2f7777772e6865726f6e66742e636f6d2f0000000000000000815250600e908051906020019062000051929190620001f4565b503480156200005f57600080fd5b506040518060400160405280600381526020017f6e667400000000000000000000000000000000000000000000000000000000008152506040518060400160405280600381526020017f6e667400000000000000000000000000000000000000000000000000000000008152508160009080519060200190620000e4929190620001f4565b508060019080519060200190620000fd929190620001f4565b50505062000120620001146200012660201b60201c565b6200012e60201b60201c565b62000309565b600033905090565b6000600b60009054906101000a900473ffffffffffffffffffffffffffffffffffffffff16905081600b60006101000a81548173ffffffffffffffffffffffffffffffffffffffff021916908373ffffffffffffffffffffffffffffffffffffffff1602179055508173ffffffffffffffffffffffffffffffffffffffff168173ffffffffffffffffffffffffffffffffffffffff167f8be0079c531659141344cd1fd0a4f28419497f9722a3daafe3b4186f6b6457e060405160405180910390a35050565b8280546200020290620002d3565b90600052602060002090601f01602090048101928262000226576000855562000272565b82601f106200024157805160ff191683800117855562000272565b8280016001018555821562000272579182015b828111156200027157825182559160200191906001019062000254565b5b50905062000281919062000285565b5090565b5b80821115620002a057600081600090555060010162000286565b5090565b7f4e487b7100000000000000000000000000000000000000000000000000000000600052602260045260246000fd5b60006002820490506001821680620002ec57607f821691505b60208210811415620003035762000302620002a4565b5b50919050565b61465380620003196000396000f3fe608060405234801561001057600080fd5b50600436106101c45760003560e01c80636a627842116100f9578063a22cb46511610097578063c46b0d8411610071578063c46b0d8414610515578063c87b56dd14610531578063e985e9c514610561578063f2fde38b14610591576101c4565b8063a22cb465146104ad578063aa271e1a146104c9578063b88d4fde146104f9576101c4565b80638462151c116100d35780638462151c146104255780638da5cb5b1461045557806395d89b4114610473578063983b2d5614610491576101c4565b80636a627842146103bb57806370a08231146103eb578063715018a61461041b576101c4565b80633092afd51161016657806342966c681161014057806342966c681461032357806343508b051461033f5780634f6ccce71461035b5780636352211e1461038b576101c4565b80633092afd5146102cd5780633e63eb2a146102e957806342842e0e14610307576101c4565b8063095ea7b3116101a2578063095ea7b31461024757806318160ddd1461026357806323b872dd146102815780632f745c591461029d576101c4565b806301ffc9a7146101c957806306fdde03146101f9578063081812fc14610217575b600080fd5b6101e360048036038101906101de9190612ee7565b6105ad565b6040516101f09190612f2f565b60405180910390f35b6102016105bf565b60405161020e9190612fe3565b60405180910390f35b610231600480360381019061022c919061303b565b610651565b60405161023e91906130a9565b60405180910390f35b610261600480360381019061025c91906130f0565b6106d6565b005b61026b6107ee565b604051610278919061313f565b60405180910390f35b61029b6004803603810190610296919061315a565b6107fb565b005b6102b760048036038101906102b291906130f0565b61085b565b6040516102c4919061313f565b60405180910390f35b6102e760048036038101906102e291906131ad565b610900565b005b6102f1610a9d565b6040516102fe9190612fe3565b60405180910390f35b610321600480360381019061031c919061315a565b610b2b565b005b61033d6004803603810190610338919061303b565b610b4b565b005b610359600480360381019061035491906130f0565b610bf5565b005b6103756004803603810190610370919061303b565b610d1c565b604051610382919061313f565b60405180910390f35b6103a560048036038101906103a0919061303b565b610d8d565b6040516103b291906130a9565b60405180910390f35b6103d560048036038101906103d091906131ad565b610e3f565b6040516103e2919061313f565b60405180910390f35b610405600480360381019061040091906131ad565b610f57565b604051610412919061313f565b60405180910390f35b61042361100f565b005b61043f600480360381019061043a91906131ad565b611097565b60405161044c9190613298565b60405180910390f35b61045d6111a1565b60405161046a91906130a9565b60405180910390f35b61047b6111cb565b6040516104889190612fe3565b60405180910390f35b6104ab60048036038101906104a691906131ad565b61125d565b005b6104c760048036038101906104c291906132e6565b611474565b005b6104e360048036038101906104de91906131ad565b61148a565b6040516104f09190612f2f565b60405180910390f35b610513600480360381019061050e919061345b565b6114e0565b005b61052f600480360381019061052a919061357f565b611542565b005b61054b6004803603810190610546919061303b565b611626565b6040516105589190612fe3565b60405180910390f35b61057b600480360381019061057691906135c8565b611638565b6040516105889190612f2f565b60405180910390f35b6105ab60048036038101906105a691906131ad565b6116cc565b005b60006105b8826117c4565b9050919050565b6060600080546105ce90613637565b80601f01602080910402602001604051908101604052809291908181526020018280546105fa90613637565b80156106475780601f1061061c57610100808354040283529160200191610647565b820191906000526020600020905b81548152906001019060200180831161062a57829003601f168201915b5050505050905090565b600061065c8261183e565b61069b576040517f08c379a0000000000000000000000000000000000000000000000000000000008152600401610692906136db565b60405180910390fd5b6004600083815260200190815260200160002060009054906101000a900473ffffffffffffffffffffffffffffffffffffffff169050919050565b60006106e182610d8d565b90508073ffffffffffffffffffffffffffffffffffffffff168373ffffffffffffffffffffffffffffffffffffffff161415610752576040517f08c379a00000000000000000000000000000000000000000000000000000000081526004016107499061376d565b60405180910390fd5b8073ffffffffffffffffffffffffffffffffffffffff166107716118aa565b73ffffffffffffffffffffffffffffffffffffffff1614806107a0575061079f8161079a6118aa565b611638565b5b6107df576040517f08c379a00000000000000000000000000000000000000000000000000000000081526004016107d6906137ff565b60405180910390fd5b6107e983836118b2565b505050565b6000600880549050905090565b61080c6108066118aa565b8261196b565b61084b576040517f08c379a000000000000000000000000000000000000000000000000000000000815260040161084290613891565b60405180910390fd5b610856838383611a49565b505050565b600061086683610f57565b82106108a7576040517f08c379a000000000000000000000000000000000000000000000000000000000815260040161089e90613923565b60405180910390fd5b600660008473ffffffffffffffffffffffffffffffffffffffff1673ffffffffffffffffffffffffffffffffffffffff168152602001908152602001600020600083815260200190815260200160002054905092915050565b6109086118aa565b73ffffffffffffffffffffffffffffffffffffffff166109266111a1565b73ffffffffffffffffffffffffffffffffffffffff161461097c576040517f08c379a00000000000000000000000000000000000000000000000000000000081526004016109739061398f565b60405180910390fd5b600d60008273ffffffffffffffffffffffffffffffffffffffff1673ffffffffffffffffffffffffffffffffffffffff16815260200190815260200160002060009054906101000a900460ff16610a08576040517f08c379a00000000000000000000000000000000000000000000000000000000081526004016109ff906139fb565b60405180910390fd5b600d60008273ffffffffffffffffffffffffffffffffffffffff1673ffffffffffffffffffffffffffffffffffffffff16815260200190815260200160002060006101000a81549060ff02191690558073ffffffffffffffffffffffffffffffffffffffff167fe94479a9f7e1952cc78f2d6baab678adc1b772d936c6583def489e524cb6669260405160405180910390a250565b600e8054610aaa90613637565b80601f0160208091040260200160405190810160405280929190818152602001828054610ad690613637565b8015610b235780601f10610af857610100808354040283529160200191610b23565b820191906000526020600020905b815481529060010190602001808311610b0657829003601f168201915b505050505081565b610b46838383604051806020016040528060008152506114e0565b505050565b610b5c610b566118aa565b8261196b565b610b9b576040517f08c379a0000000000000000000000000000000000000000000000000000000008152600401610b9290613a8d565b60405180910390fd5b610ba481611ca5565b3373ffffffffffffffffffffffffffffffffffffffff167fcc16f5dbb4873280815c1ee09dbd06736cffcc184412cf7a71a0fdb75d397ca582604051610bea919061313f565b60405180910390a250565b600d6000610c016118aa565b73ffffffffffffffffffffffffffffffffffffffff1673ffffffffffffffffffffffffffffffffffffffff16815260200190815260200160002060009054906101000a900460ff16610c88576040517f08c379a0000000000000000000000000000000000000000000000000000000008152600401610c7f90613af9565b60405180910390fd5b60005b81811015610cc957610c9d600c611cb1565b6000610ca9600c611cc7565b9050610cb58482611cd5565b508080610cc190613b48565b915050610c8b565b508173ffffffffffffffffffffffffffffffffffffffff167f4b6dcabdeaeb0ec6121e2e093c11a74bd84844268dc1131fd8ba3b363a82d7e882604051610d10919061313f565b60405180910390a25050565b6000610d266107ee565b8210610d67576040517f08c379a0000000000000000000000000000000000000000000000000000000008152600401610d5e90613c03565b60405180910390fd5b60088281548110610d7b57610d7a613c23565b5b90600052602060002001549050919050565b6000806002600084815260200190815260200160002060009054906101000a900473ffffffffffffffffffffffffffffffffffffffff169050600073ffffffffffffffffffffffffffffffffffffffff168173ffffffffffffffffffffffffffffffffffffffff161415610e36576040517f08c379a0000000000000000000000000000000000000000000000000000000008152600401610e2d90613cc4565b60405180910390fd5b80915050919050565b6000600d6000610e4d6118aa565b73ffffffffffffffffffffffffffffffffffffffff1673ffffffffffffffffffffffffffffffffffffffff16815260200190815260200160002060009054906101000a900460ff16610ed4576040517f08c379a0000000000000000000000000000000000000000000000000000000008152600401610ecb90613af9565b60405180910390fd5b610ede600c611cb1565b6000610eea600c611cc7565b9050610ef68382611cd5565b610f0033826118b2565b8273ffffffffffffffffffffffffffffffffffffffff167f0f6798a560793a54c3bcfe86a93cde1e73087d944c0ea20544137d412139688582604051610f46919061313f565b60405180910390a280915050919050565b60008073ffffffffffffffffffffffffffffffffffffffff168273ffffffffffffffffffffffffffffffffffffffff161415610fc8576040517f08c379a0000000000000000000000000000000000000000000000000000000008152600401610fbf90613d56565b60405180910390fd5b600360008373ffffffffffffffffffffffffffffffffffffffff1673ffffffffffffffffffffffffffffffffffffffff168152602001908152602001600020549050919050565b6110176118aa565b73ffffffffffffffffffffffffffffffffffffffff166110356111a1565b73ffffffffffffffffffffffffffffffffffffffff161461108b576040517f08c379a00000000000000000000000000000000000000000000000000000000081526004016110829061398f565b60405180910390fd5b6110956000611ea3565b565b606060006110a483610f57565b9050600081141561110157600067ffffffffffffffff8111156110ca576110c9613330565b5b6040519080825280602002602001820160405280156110f85781602001602082028036833780820191505090505b5091505061119c565b60008167ffffffffffffffff81111561111d5761111c613330565b5b60405190808252806020026020018201604052801561114b5781602001602082028036833780820191505090505b50905060005b8281101561119557611163858261085b565b82828151811061117657611175613c23565b5b602002602001018181525050808061118d90613b48565b915050611151565b5080925050505b919050565b6000600b60009054906101000a900473ffffffffffffffffffffffffffffffffffffffff16905090565b6060600180546111da90613637565b80601f016020809104026020016040519081016040528092919081815260200182805461120690613637565b80156112535780601f1061122857610100808354040283529160200191611253565b820191906000526020600020905b81548152906001019060200180831161123657829003601f168201915b5050505050905090565b6112656118aa565b73ffffffffffffffffffffffffffffffffffffffff166112836111a1565b73ffffffffffffffffffffffffffffffffffffffff16146112d9576040517f08c379a00000000000000000000000000000000000000000000000000000000081526004016112d09061398f565b60405180910390fd5b600073ffffffffffffffffffffffffffffffffffffffff168173ffffffffffffffffffffffffffffffffffffffff161415611349576040517f08c379a000000000000000000000000000000000000000000000000000000000815260040161134090613dc2565b60405180910390fd5b600d60008273ffffffffffffffffffffffffffffffffffffffff1673ffffffffffffffffffffffffffffffffffffffff16815260200190815260200160002060009054906101000a900460ff16156113d6576040517f08c379a00000000000000000000000000000000000000000000000000000000081526004016113cd90613e2e565b60405180910390fd5b6001600d60008373ffffffffffffffffffffffffffffffffffffffff1673ffffffffffffffffffffffffffffffffffffffff16815260200190815260200160002060006101000a81548160ff0219169083151502179055508073ffffffffffffffffffffffffffffffffffffffff167f6ae172837ea30b801fbfcdd4108aa1d5bf8ff775444fd70256b44e6bf3dfc3f660405160405180910390a250565b61148661147f6118aa565b8383611f69565b5050565b6000600d60008373ffffffffffffffffffffffffffffffffffffffff1673ffffffffffffffffffffffffffffffffffffffff16815260200190815260200160002060009054906101000a900460ff169050919050565b6114f16114eb6118aa565b8361196b565b611530576040517f08c379a000000000000000000000000000000000000000000000000000000000815260040161152790613891565b60405180910390fd5b61153c848484846120d6565b50505050565b600d600061154e6118aa565b73ffffffffffffffffffffffffffffffffffffffff1673ffffffffffffffffffffffffffffffffffffffff16815260200190815260200160002060009054906101000a900460ff166115d5576040517f08c379a00000000000000000000000000000000000000000000000000000000081526004016115cc90613af9565b60405180910390fd5b80600e90805190602001906115eb929190612d98565b507f23c8c9488efebfd474e85a7956de6f39b17c7ab88502d42a623db2d8e382bbaa8160405161161b9190612fe3565b60405180910390a150565b606061163182612132565b9050919050565b6000600560008473ffffffffffffffffffffffffffffffffffffffff1673ffffffffffffffffffffffffffffffffffffffff16815260200190815260200160002060008373ffffffffffffffffffffffffffffffffffffffff1673ffffffffffffffffffffffffffffffffffffffff16815260200190815260200160002060009054906101000a900460ff16905092915050565b6116d46118aa565b73ffffffffffffffffffffffffffffffffffffffff166116f26111a1565b73ffffffffffffffffffffffffffffffffffffffff1614611748576040517f08c379a000000000000000000000000000000000000000000000000000000000815260040161173f9061398f565b60405180910390fd5b600073ffffffffffffffffffffffffffffffffffffffff168173ffffffffffffffffffffffffffffffffffffffff1614156117b8576040517f08c379a00000000000000000000000000000000000000000000000000000000081526004016117af90613ec0565b60405180910390fd5b6117c181611ea3565b50565b60007f780e9d63000000000000000000000000000000000000000000000000000000007bffffffffffffffffffffffffffffffffffffffffffffffffffffffff1916827bffffffffffffffffffffffffffffffffffffffffffffffffffffffff19161480611837575061183682612284565b5b9050919050565b60008073ffffffffffffffffffffffffffffffffffffffff166002600084815260200190815260200160002060009054906101000a900473ffffffffffffffffffffffffffffffffffffffff1673ffffffffffffffffffffffffffffffffffffffff1614159050919050565b600033905090565b816004600083815260200190815260200160002060006101000a81548173ffffffffffffffffffffffffffffffffffffffff021916908373ffffffffffffffffffffffffffffffffffffffff160217905550808273ffffffffffffffffffffffffffffffffffffffff1661192583610d8d565b73ffffffffffffffffffffffffffffffffffffffff167f8c5be1e5ebec7d5bd14f71427d1e84f3dd0314c0f7b2291e5b200ac8c7c3b92560405160405180910390a45050565b60006119768261183e565b6119b5576040517f08c379a00000000000000000000000000000000000000000000000000000000081526004016119ac90613f52565b60405180910390fd5b60006119c083610d8d565b90508073ffffffffffffffffffffffffffffffffffffffff168473ffffffffffffffffffffffffffffffffffffffff161480611a2f57508373ffffffffffffffffffffffffffffffffffffffff16611a1784610651565b73ffffffffffffffffffffffffffffffffffffffff16145b80611a405750611a3f8185611638565b5b91505092915050565b8273ffffffffffffffffffffffffffffffffffffffff16611a6982610d8d565b73ffffffffffffffffffffffffffffffffffffffff1614611abf576040517f08c379a0000000000000000000000000000000000000000000000000000000008152600401611ab690613fe4565b60405180910390fd5b600073ffffffffffffffffffffffffffffffffffffffff168273ffffffffffffffffffffffffffffffffffffffff161415611b2f576040517f08c379a0000000000000000000000000000000000000000000000000000000008152600401611b2690614076565b60405180910390fd5b611b3a838383612366565b611b456000826118b2565b6001600360008573ffffffffffffffffffffffffffffffffffffffff1673ffffffffffffffffffffffffffffffffffffffff1681526020019081526020016000206000828254611b959190614096565b925050819055506001600360008473ffffffffffffffffffffffffffffffffffffffff1673ffffffffffffffffffffffffffffffffffffffff1681526020019081526020016000206000828254611bec91906140ca565b92505081905550816002600083815260200190815260200160002060006101000a81548173ffffffffffffffffffffffffffffffffffffffff021916908373ffffffffffffffffffffffffffffffffffffffff160217905550808273ffffffffffffffffffffffffffffffffffffffff168473ffffffffffffffffffffffffffffffffffffffff167fddf252ad1be2c89b69c2b068fc378daa952ba7f163c4a11628f55a4df523b3ef60405160405180910390a4505050565b611cae81612376565b50565b6001816000016000828254019250508190555050565b600081600001549050919050565b600073ffffffffffffffffffffffffffffffffffffffff168273ffffffffffffffffffffffffffffffffffffffff161415611d45576040517f08c379a0000000000000000000000000000000000000000000000000000000008152600401611d3c9061416c565b60405180910390fd5b611d4e8161183e565b15611d8e576040517f08c379a0000000000000000000000000000000000000000000000000000000008152600401611d85906141d8565b60405180910390fd5b611d9a60008383612366565b6001600360008473ffffffffffffffffffffffffffffffffffffffff1673ffffffffffffffffffffffffffffffffffffffff1681526020019081526020016000206000828254611dea91906140ca565b92505081905550816002600083815260200190815260200160002060006101000a81548173ffffffffffffffffffffffffffffffffffffffff021916908373ffffffffffffffffffffffffffffffffffffffff160217905550808273ffffffffffffffffffffffffffffffffffffffff16600073ffffffffffffffffffffffffffffffffffffffff167fddf252ad1be2c89b69c2b068fc378daa952ba7f163c4a11628f55a4df523b3ef60405160405180910390a45050565b6000600b60009054906101000a900473ffffffffffffffffffffffffffffffffffffffff16905081600b60006101000a81548173ffffffffffffffffffffffffffffffffffffffff021916908373ffffffffffffffffffffffffffffffffffffffff1602179055508173ffffffffffffffffffffffffffffffffffffffff168173ffffffffffffffffffffffffffffffffffffffff167f8be0079c531659141344cd1fd0a4f28419497f9722a3daafe3b4186f6b6457e060405160405180910390a35050565b8173ffffffffffffffffffffffffffffffffffffffff168373ffffffffffffffffffffffffffffffffffffffff161415611fd8576040517f08c379a0000000000000000000000000000000000000000000000000000000008152600401611fcf90614244565b60405180910390fd5b80600560008573ffffffffffffffffffffffffffffffffffffffff1673ffffffffffffffffffffffffffffffffffffffff16815260200190815260200160002060008473ffffffffffffffffffffffffffffffffffffffff1673ffffffffffffffffffffffffffffffffffffffff16815260200190815260200160002060006101000a81548160ff0219169083151502179055508173ffffffffffffffffffffffffffffffffffffffff168373ffffffffffffffffffffffffffffffffffffffff167f17307eab39ab6107e8899845ad3d59bd9653f200f220920489ca2b5937696c31836040516120c99190612f2f565b60405180910390a3505050565b6120e1848484611a49565b6120ed848484846123c9565b61212c576040517f08c379a0000000000000000000000000000000000000000000000000000000008152600401612123906142d6565b60405180910390fd5b50505050565b606061213d8261183e565b61217c576040517f08c379a000000000000000000000000000000000000000000000000000000000815260040161217390614368565b60405180910390fd5b6000600a6000848152602001908152602001600020805461219c90613637565b80601f01602080910402602001604051908101604052809291908181526020018280546121c890613637565b80156122155780601f106121ea57610100808354040283529160200191612215565b820191906000526020600020905b8154815290600101906020018083116121f857829003601f168201915b505050505090506000612226612551565b905060008151141561223c57819250505061227f565b6000825111156122715780826040516020016122599291906143c4565b6040516020818303038152906040529250505061227f565b61227a846125e3565b925050505b919050565b60007f80ac58cd000000000000000000000000000000000000000000000000000000007bffffffffffffffffffffffffffffffffffffffffffffffffffffffff1916827bffffffffffffffffffffffffffffffffffffffffffffffffffffffff1916148061234f57507f5b5e139f000000000000000000000000000000000000000000000000000000007bffffffffffffffffffffffffffffffffffffffffffffffffffffffff1916827bffffffffffffffffffffffffffffffffffffffffffffffffffffffff1916145b8061235f575061235e8261268a565b5b9050919050565b6123718383836126f4565b505050565b61237f81612808565b6000600a6000838152602001908152602001600020805461239f90613637565b9050146123c657600a600082815260200190815260200160002060006123c59190612e1e565b5b50565b60006123ea8473ffffffffffffffffffffffffffffffffffffffff16612919565b15612544578373ffffffffffffffffffffffffffffffffffffffff1663150b7a026124136118aa565b8786866040518563ffffffff1660e01b8152600401612435949392919061443d565b6020604051808303816000875af192505050801561247157506040513d601f19601f8201168201806040525081019061246e919061449e565b60015b6124f4573d80600081146124a1576040519150601f19603f3d011682016040523d82523d6000602084013e6124a6565b606091505b506000815114156124ec576040517f08c379a00000000000000000000000000000000000000000000000000000000081526004016124e3906142d6565b60405180910390fd5b805181602001fd5b63150b7a0260e01b7bffffffffffffffffffffffffffffffffffffffffffffffffffffffff1916817bffffffffffffffffffffffffffffffffffffffffffffffffffffffff191614915050612549565b600190505b949350505050565b6060600e805461256090613637565b80601f016020809104026020016040519081016040528092919081815260200182805461258c90613637565b80156125d95780601f106125ae576101008083540402835291602001916125d9565b820191906000526020600020905b8154815290600101906020018083116125bc57829003601f168201915b5050505050905090565b60606125ee8261183e565b61262d576040517f08c379a00000000000000000000000000000000000000000000000000000000081526004016126249061453d565b60405180910390fd5b6000612637612551565b905060008151116126575760405180602001604052806000815250612682565b806126618461292c565b6040516020016126729291906143c4565b6040516020818303038152906040525b915050919050565b60007f01ffc9a7000000000000000000000000000000000000000000000000000000007bffffffffffffffffffffffffffffffffffffffffffffffffffffffff1916827bffffffffffffffffffffffffffffffffffffffffffffffffffffffff1916149050919050565b6126ff838383612a8d565b600073ffffffffffffffffffffffffffffffffffffffff168373ffffffffffffffffffffffffffffffffffffffff1614156127425761273d81612a92565b612781565b8173ffffffffffffffffffffffffffffffffffffffff168373ffffffffffffffffffffffffffffffffffffffff16146127805761277f8382612adb565b5b5b600073ffffffffffffffffffffffffffffffffffffffff168273ffffffffffffffffffffffffffffffffffffffff1614156127c4576127bf81612c48565b612803565b8273ffffffffffffffffffffffffffffffffffffffff168273ffffffffffffffffffffffffffffffffffffffff1614612802576128018282612d19565b5b5b505050565b600061281382610d8d565b905061282181600084612366565b61282c6000836118b2565b6001600360008373ffffffffffffffffffffffffffffffffffffffff1673ffffffffffffffffffffffffffffffffffffffff168152602001908152602001600020600082825461287c9190614096565b925050819055506002600083815260200190815260200160002060006101000a81549073ffffffffffffffffffffffffffffffffffffffff021916905581600073ffffffffffffffffffffffffffffffffffffffff168273ffffffffffffffffffffffffffffffffffffffff167fddf252ad1be2c89b69c2b068fc378daa952ba7f163c4a11628f55a4df523b3ef60405160405180910390a45050565b600080823b905060008111915050919050565b60606000821415612974576040518060400160405280600181526020017f30000000000000000000000000000000000000000000000000000000000000008152509050612a88565b600082905060005b600082146129a657808061298f90613b48565b915050600a8261299f919061458c565b915061297c565b60008167ffffffffffffffff8111156129c2576129c1613330565b5b6040519080825280601f01601f1916602001820160405280156129f45781602001600182028036833780820191505090505b5090505b60008514612a8157600182612a0d9190614096565b9150600a85612a1c91906145bd565b6030612a2891906140ca565b60f81b818381518110612a3e57612a3d613c23565b5b60200101907effffffffffffffffffffffffffffffffffffffffffffffffffffffffffffff1916908160001a905350600a85612a7a919061458c565b94506129f8565b8093505050505b919050565b505050565b6008805490506009600083815260200190815260200160002081905550600881908060018154018082558091505060019003906000526020600020016000909190919091505550565b60006001612ae884610f57565b612af29190614096565b9050600060076000848152602001908152602001600020549050818114612bd7576000600660008673ffffffffffffffffffffffffffffffffffffffff1673ffffffffffffffffffffffffffffffffffffffff168152602001908152602001600020600084815260200190815260200160002054905080600660008773ffffffffffffffffffffffffffffffffffffffff1673ffffffffffffffffffffffffffffffffffffffff168152602001908152602001600020600084815260200190815260200160002081905550816007600083815260200190815260200160002081905550505b6007600084815260200190815260200160002060009055600660008573ffffffffffffffffffffffffffffffffffffffff1673ffffffffffffffffffffffffffffffffffffffff16815260200190815260200160002060008381526020019081526020016000206000905550505050565b60006001600880549050612c5c9190614096565b9050600060096000848152602001908152602001600020549050600060088381548110612c8c57612c8b613c23565b5b906000526020600020015490508060088381548110612cae57612cad613c23565b5b906000526020600020018190555081600960008381526020019081526020016000208190555060096000858152602001908152602001600020600090556008805480612cfd57612cfc6145ee565b5b6001900381819060005260206000200160009055905550505050565b6000612d2483610f57565b905081600660008573ffffffffffffffffffffffffffffffffffffffff1673ffffffffffffffffffffffffffffffffffffffff168152602001908152602001600020600083815260200190815260200160002081905550806007600084815260200190815260200160002081905550505050565b828054612da490613637565b90600052602060002090601f016020900481019282612dc65760008555612e0d565b82601f10612ddf57805160ff1916838001178555612e0d565b82800160010185558215612e0d579182015b82811115612e0c578251825591602001919060010190612df1565b5b509050612e1a9190612e5e565b5090565b508054612e2a90613637565b6000825580601f10612e3c5750612e5b565b601f016020900490600052602060002090810190612e5a9190612e5e565b5b50565b5b80821115612e77576000816000905550600101612e5f565b5090565b6000604051905090565b600080fd5b600080fd5b60007fffffffff0000000000000000000000000000000000000000000000000000000082169050919050565b612ec481612e8f565b8114612ecf57600080fd5b50565b600081359050612ee181612ebb565b92915050565b600060208284031215612efd57612efc612e85565b5b6000612f0b84828501612ed2565b91505092915050565b60008115159050919050565b612f2981612f14565b82525050565b6000602082019050612f446000830184612f20565b92915050565b600081519050919050565b600082825260208201905092915050565b60005b83811015612f84578082015181840152602081019050612f69565b83811115612f93576000848401525b50505050565b6000601f19601f8301169050919050565b6000612fb582612f4a565b612fbf8185612f55565b9350612fcf818560208601612f66565b612fd881612f99565b840191505092915050565b60006020820190508181036000830152612ffd8184612faa565b905092915050565b6000819050919050565b61301881613005565b811461302357600080fd5b50565b6000813590506130358161300f565b92915050565b60006020828403121561305157613050612e85565b5b600061305f84828501613026565b91505092915050565b600073ffffffffffffffffffffffffffffffffffffffff82169050919050565b600061309382613068565b9050919050565b6130a381613088565b82525050565b60006020820190506130be600083018461309a565b92915050565b6130cd81613088565b81146130d857600080fd5b50565b6000813590506130ea816130c4565b92915050565b6000806040838503121561310757613106612e85565b5b6000613115858286016130db565b925050602061312685828601613026565b9150509250929050565b61313981613005565b82525050565b60006020820190506131546000830184613130565b92915050565b60008060006060848603121561317357613172612e85565b5b6000613181868287016130db565b9350506020613192868287016130db565b92505060406131a386828701613026565b9150509250925092565b6000602082840312156131c3576131c2612e85565b5b60006131d1848285016130db565b91505092915050565b600081519050919050565b600082825260208201905092915050565b6000819050602082019050919050565b61320f81613005565b82525050565b60006132218383613206565b60208301905092915050565b6000602082019050919050565b6000613245826131da565b61324f81856131e5565b935061325a836131f6565b8060005b8381101561328b5781516132728882613215565b975061327d8361322d565b92505060018101905061325e565b5085935050505092915050565b600060208201905081810360008301526132b2818461323a565b905092915050565b6132c381612f14565b81146132ce57600080fd5b50565b6000813590506132e0816132ba565b92915050565b600080604083850312156132fd576132fc612e85565b5b600061330b858286016130db565b925050602061331c858286016132d1565b9150509250929050565b600080fd5b600080fd5b7f4e487b7100000000000000000000000000000000000000000000000000000000600052604160045260246000fd5b61336882612f99565b810181811067ffffffffffffffff8211171561338757613386613330565b5b80604052505050565b600061339a612e7b565b90506133a6828261335f565b919050565b600067ffffffffffffffff8211156133c6576133c5613330565b5b6133cf82612f99565b9050602081019050919050565b82818337600083830152505050565b60006133fe6133f9846133ab565b613390565b90508281526020810184848401111561341a5761341961332b565b5b6134258482856133dc565b509392505050565b600082601f83011261344257613441613326565b5b81356134528482602086016133eb565b91505092915050565b6000806000806080858703121561347557613474612e85565b5b6000613483878288016130db565b9450506020613494878288016130db565b93505060406134a587828801613026565b925050606085013567ffffffffffffffff8111156134c6576134c5612e8a565b5b6134d28782880161342d565b91505092959194509250565b600067ffffffffffffffff8211156134f9576134f8613330565b5b61350282612f99565b9050602081019050919050565b600061352261351d846134de565b613390565b90508281526020810184848401111561353e5761353d61332b565b5b6135498482856133dc565b509392505050565b600082601f83011261356657613565613326565b5b813561357684826020860161350f565b91505092915050565b60006020828403121561359557613594612e85565b5b600082013567ffffffffffffffff8111156135b3576135b2612e8a565b5b6135bf84828501613551565b91505092915050565b600080604083850312156135df576135de612e85565b5b60006135ed858286016130db565b92505060206135fe858286016130db565b9150509250929050565b7f4e487b7100000000000000000000000000000000000000000000000000000000600052602260045260246000fd5b6000600282049050600182168061364f57607f821691505b6020821081141561366357613662613608565b5b50919050565b7f4552433732313a20617070726f76656420717565727920666f72206e6f6e657860008201527f697374656e7420746f6b656e0000000000000000000000000000000000000000602082015250565b60006136c5602c83612f55565b91506136d082613669565b604082019050919050565b600060208201905081810360008301526136f4816136b8565b9050919050565b7f4552433732313a20617070726f76616c20746f2063757272656e74206f776e6560008201527f7200000000000000000000000000000000000000000000000000000000000000602082015250565b6000613757602183612f55565b9150613762826136fb565b604082019050919050565b600060208201905081810360008301526137868161374a565b9050919050565b7f4552433732313a20617070726f76652063616c6c6572206973206e6f74206f7760008201527f6e6572206e6f7220617070726f76656420666f7220616c6c0000000000000000602082015250565b60006137e9603883612f55565b91506137f48261378d565b604082019050919050565b60006020820190508181036000830152613818816137dc565b9050919050565b7f4552433732313a207472616e736665722063616c6c6572206973206e6f74206f60008201527f776e6572206e6f7220617070726f766564000000000000000000000000000000602082015250565b600061387b603183612f55565b91506138868261381f565b604082019050919050565b600060208201905081810360008301526138aa8161386e565b9050919050565b7f455243373231456e756d657261626c653a206f776e657220696e646578206f7560008201527f74206f6620626f756e6473000000000000000000000000000000000000000000602082015250565b600061390d602b83612f55565b9150613918826138b1565b604082019050919050565b6000602082019050818103600083015261393c81613900565b9050919050565b7f4f776e61626c653a2063616c6c6572206973206e6f7420746865206f776e6572600082015250565b6000613979602083612f55565b915061398482613943565b602082019050919050565b600060208201905081810360008301526139a88161396c565b9050919050565b7f4d696e74657220646f6573206e6f742065786973740000000000000000000000600082015250565b60006139e5601583612f55565b91506139f0826139af565b602082019050919050565b60006020820190508181036000830152613a14816139d8565b9050919050565b7f4552433732314275726e61626c653a2063616c6c6572206973206e6f74206f7760008201527f6e6572206e6f7220617070726f76656400000000000000000000000000000000602082015250565b6000613a77603083612f55565b9150613a8282613a1b565b604082019050919050565b60006020820190508181036000830152613aa681613a6a565b9050919050565b7f4552433732313a2063616c6c6572206973206e6f7420746865206d696e746572600082015250565b6000613ae3602083612f55565b9150613aee82613aad565b602082019050919050565b60006020820190508181036000830152613b1281613ad6565b9050919050565b7f4e487b7100000000000000000000000000000000000000000000000000000000600052601160045260246000fd5b6000613b5382613005565b91507fffffffffffffffffffffffffffffffffffffffffffffffffffffffffffffffff821415613b8657613b85613b19565b5b600182019050919050565b7f455243373231456e756d657261626c653a20676c6f62616c20696e646578206f60008201527f7574206f6620626f756e64730000000000000000000000000000000000000000602082015250565b6000613bed602c83612f55565b9150613bf882613b91565b604082019050919050565b60006020820190508181036000830152613c1c81613be0565b9050919050565b7f4e487b7100000000000000000000000000000000000000000000000000000000600052603260045260246000fd5b7f4552433732313a206f776e657220717565727920666f72206e6f6e657869737460008201527f656e7420746f6b656e0000000000000000000000000000000000000000000000602082015250565b6000613cae602983612f55565b9150613cb982613c52565b604082019050919050565b60006020820190508181036000830152613cdd81613ca1565b9050919050565b7f4552433732313a2062616c616e636520717565727920666f7220746865207a6560008201527f726f206164647265737300000000000000000000000000000000000000000000602082015250565b6000613d40602a83612f55565b9150613d4b82613ce4565b604082019050919050565b60006020820190508181036000830152613d6f81613d33565b9050919050565b7f4d696e746572206d757374206e6f74206265206e756c6c206164647265737300600082015250565b6000613dac601f83612f55565b9150613db782613d76565b602082019050919050565b60006020820190508181036000830152613ddb81613d9f565b9050919050565b7f4d696e74657220616c7265616479206164646564000000000000000000000000600082015250565b6000613e18601483612f55565b9150613e2382613de2565b602082019050919050565b60006020820190508181036000830152613e4781613e0b565b9050919050565b7f4f776e61626c653a206e6577206f776e657220697320746865207a65726f206160008201527f6464726573730000000000000000000000000000000000000000000000000000602082015250565b6000613eaa602683612f55565b9150613eb582613e4e565b604082019050919050565b60006020820190508181036000830152613ed981613e9d565b9050919050565b7f4552433732313a206f70657261746f7220717565727920666f72206e6f6e657860008201527f697374656e7420746f6b656e0000000000000000000000000000000000000000602082015250565b6000613f3c602c83612f55565b9150613f4782613ee0565b604082019050919050565b60006020820190508181036000830152613f6b81613f2f565b9050919050565b7f4552433732313a207472616e73666572206f6620746f6b656e2074686174206960008201527f73206e6f74206f776e0000000000000000000000000000000000000000000000602082015250565b6000613fce602983612f55565b9150613fd982613f72565b604082019050919050565b60006020820190508181036000830152613ffd81613fc1565b9050919050565b7f4552433732313a207472616e7366657220746f20746865207a65726f2061646460008201527f7265737300000000000000000000000000000000000000000000000000000000602082015250565b6000614060602483612f55565b915061406b82614004565b604082019050919050565b6000602082019050818103600083015261408f81614053565b9050919050565b60006140a182613005565b91506140ac83613005565b9250828210156140bf576140be613b19565b5b828203905092915050565b60006140d582613005565b91506140e083613005565b9250827fffffffffffffffffffffffffffffffffffffffffffffffffffffffffffffffff0382111561411557614114613b19565b5b828201905092915050565b7f4552433732313a206d696e7420746f20746865207a65726f2061646472657373600082015250565b6000614156602083612f55565b915061416182614120565b602082019050919050565b6000602082019050818103600083015261418581614149565b9050919050565b7f4552433732313a20746f6b656e20616c7265616479206d696e74656400000000600082015250565b60006141c2601c83612f55565b91506141cd8261418c565b602082019050919050565b600060208201905081810360008301526141f1816141b5565b9050919050565b7f4552433732313a20617070726f766520746f2063616c6c657200000000000000600082015250565b600061422e601983612f55565b9150614239826141f8565b602082019050919050565b6000602082019050818103600083015261425d81614221565b9050919050565b7f4552433732313a207472616e7366657220746f206e6f6e20455243373231526560008201527f63656976657220696d706c656d656e7465720000000000000000000000000000602082015250565b60006142c0603283612f55565b91506142cb82614264565b604082019050919050565b600060208201905081810360008301526142ef816142b3565b9050919050565b7f45524337323155524953746f726167653a2055524920717565727920666f722060008201527f6e6f6e6578697374656e7420746f6b656e000000000000000000000000000000602082015250565b6000614352603183612f55565b915061435d826142f6565b604082019050919050565b6000602082019050818103600083015261438181614345565b9050919050565b600081905092915050565b600061439e82612f4a565b6143a88185614388565b93506143b8818560208601612f66565b80840191505092915050565b60006143d08285614393565b91506143dc8284614393565b91508190509392505050565b600081519050919050565b600082825260208201905092915050565b600061440f826143e8565b61441981856143f3565b9350614429818560208601612f66565b61443281612f99565b840191505092915050565b6000608082019050614452600083018761309a565b61445f602083018661309a565b61446c6040830185613130565b818103606083015261447e8184614404565b905095945050505050565b60008151905061449881612ebb565b92915050565b6000602082840312156144b4576144b3612e85565b5b60006144c284828501614489565b91505092915050565b7f4552433732314d657461646174613a2055524920717565727920666f72206e6f60008201527f6e6578697374656e7420746f6b656e0000000000000000000000000000000000602082015250565b6000614527602f83612f55565b9150614532826144cb565b604082019050919050565b600060208201905081810360008301526145568161451a565b9050919050565b7f4e487b7100000000000000000000000000000000000000000000000000000000600052601260045260246000fd5b600061459782613005565b91506145a283613005565b9250826145b2576145b161455d565b5b828204905092915050565b60006145c882613005565b91506145d383613005565b9250826145e3576145e261455d565b5b828206905092915050565b7f4e487b7100000000000000000000000000000000000000000000000000000000600052603160045260246000fdfea26469706673582212204c647ab6d214ec4513f490c1454c700d853a877e54bbbda14d604ba43fc32a3264736f6c634300080b0033",
  "immutableReferences": {},
  "source": "// SPDX-License-Identifier: MIT\npragma solidity ^0.8.0;\n\nimport \"@openzeppelin/contracts/token/ERC721/extensions/ERC721Enumerable.sol\";\nimport \"@openzeppelin/contracts/token/ERC721/extensions/ERC721URIStorage.sol\";\nimport \"@openzeppelin/contracts/access/Ownable.sol\";\nimport \"@openzeppelin/contracts/utils/Counters.sol\";\n\n\ncontract MarbleHero is ERC721, ERC721Enumerable, ERC721URIStorage, Ownable {\n    using Counters for Counters.Counter;\n    Counters.Counter private _tokenIds;\n\n    mapping(address => bool) private _minters;\n\n    string public _baseUri = \"https://www.heronft.com/\"; // Initial base URI\n\n    event MinterAdded(address indexed minter);\n    event MinterRemoved(address indexed minter);\n    event Mint(address indexed _owner, uint256 _tokenId);\n    event BatchMint(address indexed _owner, uint256 _count);\n    event Burn(address indexed _owner, uint256 _tokenId);\n    event SetBaseURI(string _baseUri);\n\n    modifier onlyMinter() {\n        require(_minters[_msgSender()], \"ERC721: caller is not the minter\");\n        _;\n    }\n\n    constructor() ERC721(\"nft\", \"nft\") {\n\n    }\n    \n    function secureBaseUri(string memory newUri) public onlyMinter {\n        _baseUri = newUri;\n        emit SetBaseURI(newUri);\n    }\n\n    function _baseURI() internal view override returns (string memory) {\n        return _baseUri;\n    }\n    \n    function _beforeTokenTransfer(address from, address to, uint256 tokenId) internal override(ERC721, ERC721Enumerable) {\n        super._beforeTokenTransfer(from, to, tokenId);\n    }\n\n    function _burn(uint256 tokenId) internal override(ERC721, ERC721URIStorage) {\n        super._burn(tokenId);\n    }\n\n    function tokenURI(uint256 tokenId) public view override(ERC721, ERC721URIStorage) returns (string memory) {\n        return super.tokenURI(tokenId);\n    }\n\n    function supportsInterface(bytes4 interfaceId) public view override(ERC721, ERC721Enumerable) returns (bool) {\n        return super.supportsInterface(interfaceId);\n    }\n\n    function tokensOfOwner(address _owner) external view returns (uint256[] memory) {\n        uint256 tokenCount = balanceOf(_owner);\n        if (tokenCount == 0) return new uint256[](0);\n        else {\n            uint256[] memory result = new uint256[](tokenCount);\n            for (uint256 index = 0; index < tokenCount; index++) {\n                result[index] = tokenOfOwnerByIndex(_owner, index);\n            }\n            return result;\n        }\n    }\n\n    function mint(address owner) external onlyMinter returns (uint256)\n    {\n        _tokenIds.increment();\n\n        uint256 newItemId = _tokenIds.current();\n        _mint(owner, newItemId);\n        _approve(msg.sender,newItemId);\n\n        emit Mint(owner, newItemId);\n        return newItemId;\n    }\n\n    function batchMint(address owner, uint256 count) external onlyMinter {\n         for(uint256 index = 0; index < count; index++) {\n            _tokenIds.increment();\n            uint256 newItemId = _tokenIds.current();\n            _mint(owner, newItemId);\n         }\n         emit BatchMint(owner, count);\n    }\n    \n    function burn(uint256 tokenId) external {\n        require(_isApprovedOrOwner(_msgSender(), tokenId), \"ERC721Burnable: caller is not owner nor approved\");\n        _burn(tokenId);\n        emit Burn(msg.sender, tokenId);\n    }\n\n    function addMinter(address minter) external onlyOwner {\n        require(minter != address(0), \"Minter must not be null address\");\n        require(!_minters[minter], \"Minter already added\");\n        _minters[minter] = true;\n        emit MinterAdded(minter);\n    }\n\n    function removeMinter(address minter) external onlyOwner {\n        require(_minters[minter], \"Minter does not exist\");\n        delete _minters[minter];\n        emit MinterRemoved(minter);\n    }\n\n    function isMinter(address minter) external view returns(bool) {\n        return _minters[minter];\n    }\n    \n}",
  "sourcePath": "/Users/yunji/Desktop/NFTProject/contracts/MarbleHero.sol",
  "compiler": {
    "name": "solc",
    "version": "0.8.11+commit.d7f03943.Emscripten.clang"
  },
  "schemaVersion": "3.4.4",
  "updatedAt": "2022-01-12T09:08:58.983Z",
  "devdoc": {
    "kind": "dev",
    "methods": {
      "approve(address,uint256)": {
        "details": "See {IERC721-approve}."
      },
      "balanceOf(address)": {
        "details": "See {IERC721-balanceOf}."
      },
      "getApproved(uint256)": {
        "details": "See {IERC721-getApproved}."
      },
      "isApprovedForAll(address,address)": {
        "details": "See {IERC721-isApprovedForAll}."
      },
      "name()": {
        "details": "See {IERC721Metadata-name}."
      },
      "owner()": {
        "details": "Returns the address of the current owner."
      },
      "ownerOf(uint256)": {
        "details": "See {IERC721-ownerOf}."
      },
      "renounceOwnership()": {
        "details": "Leaves the contract without owner. It will not be possible to call `onlyOwner` functions anymore. Can only be called by the current owner. NOTE: Renouncing ownership will leave the contract without an owner, thereby removing any functionality that is only available to the owner."
      },
      "safeTransferFrom(address,address,uint256)": {
        "details": "See {IERC721-safeTransferFrom}."
      },
      "safeTransferFrom(address,address,uint256,bytes)": {
        "details": "See {IERC721-safeTransferFrom}."
      },
      "setApprovalForAll(address,bool)": {
        "details": "See {IERC721-setApprovalForAll}."
      },
      "symbol()": {
        "details": "See {IERC721Metadata-symbol}."
      },
      "tokenByIndex(uint256)": {
        "details": "See {IERC721Enumerable-tokenByIndex}."
      },
      "tokenOfOwnerByIndex(address,uint256)": {
        "details": "See {IERC721Enumerable-tokenOfOwnerByIndex}."
      },
      "totalSupply()": {
        "details": "See {IERC721Enumerable-totalSupply}."
      },
      "transferFrom(address,address,uint256)": {
        "details": "See {IERC721-transferFrom}."
      },
      "transferOwnership(address)": {
        "details": "Transfers ownership of the contract to a new account (`newOwner`). Can only be called by the current owner."
      }
    },
    "version": 1
  },
  "userdoc": {
    "kind": "user",
    "methods": {},
    "version": 1
  }
}